:020000040800F2
:10000000C804002099030008294E00084148000850
:10001000214E000881090008E15D00080000000091
:1000200000000000000000000000000089500008EF
:100030008909000800000000314E000891500008B6
:10004000B3030008B3030008B3030008B3030008B8
:10005000B3030008B3030008B3030008B3030008A8
:10006000B3030008B3030008B3030008B303000898
:10007000B3030008B3030008B3030008B303000888
:10008000B3030008B3030008B3030008B303000878
:10009000B3030008B3030008B3030008B303000868
:1000A000B3030008B3030008B3030008B303000858
:1000B000B3030008B3030008B3030008B303000848
:1000C000B3030008B3030008B3030008B303000838
:1000D000B3030008B3030008B3030008B303000828
:1000E000B3030008B303000800000000B3030008D6
:1000F000B3030008B3030008B3030008B303000808
:10010000B3030008B3030008B3030008B3030008F7
:10011000B3030008B3030008B3030008B3030008E7
:10012000B3030008B3030008B3030008B3030008D7
:10013000B3030008B3030008B3030008B3030008C7
:1001400000000000000000000000000000000000AF
:10015000B3030008B3030008B3030008B3030008A7
:10016000B3030008B3030008B3030008B303000897
:10017000B3030008B3030008B30300080000000045
:10018000B3030008B3030008B3030008B303000877
:10019000B3030008B3030008B3030008B303000867
:1001A000B3030008B3030008B30300080000000015
:1001B000B3030008B3030008B3030008B303000847
:1001C000B3030008B30300080000000000000000B3
:1001D0000000000000000000B30300080000000061
:1001E000000000000000000000000000000000000F
:1001F0000000000000000000B3030008B303000883
:10020000B3030008B303000800000000B3030008B4
:10021000B3030008B3030008B3030008B3030008E6
:10022000B303000800000000B30300080000000052
:10023000B3030008B303000800000000B303000884
:10024000B3030008B3030008B3030008B3030008B6
:10025000B3030008B3030008B3030008B3030008A6
:10026000B3030008B3030008B3030008B303000896
:10027000B3030008B3030008B30300080000000044
:10028000B3030008B3030008B3030008B303000876
:1002900000000000B3030008B303000800000000E2
:1002A00000000000B3030008B3030008B303000814
:1002B000B3030008B3030008B3030008B303000846
:1002C000B3030008B3030008B303000800F002F80A
:1002D00000F052F814A696E8000CB244B344DA4594
:1002E00001D100F049F8BAE80F000FA696E83000F7
:1002F000A5EB040504EB0607AAEB0704A7F1010729
:100300004FEA15154FEA3414A4F10104AC4201D3AD
:1003100000F032F813F0010F18BFFB1A43F001038D
:1003200000F001F8DBE7184714600000546000009B
:10033000103A24BF78C878C1FAD8520724BF30C811
:1003400030C144BF04680C60704700007047000073
:100350000023002400250026103A28BF78C1FBD8CE
:10036000520728BF30C148BF0B6070471FB505F06A
:100370008FFF1FBD10B510BD00F0D0F81146FFF77C
:10038000F5FF05F031FD00F0EEF803B4FFF7F2FFE2
:1003900003BC00F0F5F80000094880470948004711
:1003A000FEE7FEE7FEE7FEE7FEE7FEE7FEE7FEE725
:1003B000FEE7FEE704480549054A064B7047000082
:1003C00061510008CD020008D0020024C8040020BA
:1003D000D0040024C800002053EA020C00F0698019
:1003E0002DE9F04B4FF00006002B1FBFB3FA83F549
:1003F00003FA05F424FA05F65E4012BF1643B2FA7A
:1004000082F502FA05F4C5F120051EBF22FA05FCAB
:1004100044EA0C04203556EA044C4FEA144418BF51
:10042000641C4FF000084FF00009904271EB030C80
:1004300039D3002919BFB1FA81F701FA07F6B0FAEA
:1004400080F700FA07F6C7F120071EBF20FA07FC65
:1004500046EA0C062037B6FBF4FCA7EB0507103F75
:1004600007F01F0BCBF120062CFA06F60CFA0BFB5B
:1004700044BFB3460026202FA4BF5E464FF0000BBA
:100480005BEA060C08BF4FF0010B19EB0B0948EBB8
:100490000608ABFB027C06FB02CC0BFB03CCC01BAB
:1004A00071EB0C01C1E70B46024641464846BDE8E8
:1004B000F08B13B5084318BF4FF0FF300146AFF380
:1004C0000080BDE81C4070474FF0000200B51346A5
:1004D00094469646203922BFA0E80C50A0E80C5064
:1004E000B1F12001BFF4F7AF090728BFA0E80C5015
:1004F00048BF0CC05DF804EB890028BF40F8042B0E
:1005000008BF704748BF20F8022B11F0804F18BF7A
:1005100000F8012B7047704770477047754600F030
:100520002BF8AE4605006946534620F00700854685
:1005300018B020B5FFF73EFFBDE820404FF00006A1
:100540004FF000074FF000084FF0000BAC46ACE84E
:10055000C009ACE8C009ACE8C009ACE8C00921F0AA
:1005600007018D46704710B50446AFF30080204662
:10057000BDE81040FFF709BF00487047080000249D
:1005800001491820ABBEFEE72600020070470000BC
:1005900070B5054600284FF0010028D00C4631B355
:1005A00040F26800C2F2004000F0AEFF002818BF21
:1005B00070BD40F268006421C2F2004000F0F0FE1D
:1005C00060B940F26806C2F20046304600F0CCFC4A
:1005D00028806421304600F0E3FE48B140F2680113
:1005E0000446C2F20041084601F012F8204670BDF0
:1005F00040F26805C2F20045284600F0B5FC2080B4
:100600002846BDE8704001F003B80000000000007B
:10061000F0B581B0064600284FF0010005D00D4628
:1006200000291CBF1446002A02D101B0F0BD00BF52
:1006300040F2D800C2F2004000F066FF0028F4D17A
:1006400040F2D8006421C2F2004000F0A9FEC8B90F
:1006500040F2D807C2F20047384600F085FC3080EF
:100660006421384600F09CFE60B940F2D806C2F220
:100670000046304600F078FC28806421304600F0C7
:100680008FFE58B140F2D8010446C2F2004108463C
:1006900000F0BEFF204601B0F0BD00BF40F2D8051B
:1006A000C2F20045284600F05FFC2080284601B0D9
:1006B000BDE8F04000F0ACBF10B50446006842F25F
:1006C000001140F48070C4F20201884218D142F255
:1006D0000830C4F20200006810F4403F18D002F065
:1006E000A7FE6168B1F5803F05D0B1F5403F2BD042
:1006F000B1F5003F29D1090CB0FBF1F025E000BFB6
:1007000046F20830C5F60200006810F4403FE6D11A
:100710004FF40020002101F033FE6168A1F5802232
:100720004FEAB2420A2A10D8DFE802F006060606AF
:100730000606403E443C42006FF0010202EA51418D
:10074000B0FBF1F001E000BF80084BF62141C0F2A0
:10075000BE01884206D82068816821F4407181601A
:1007600010BD00BF47F64101C0F27D11884207D895
:1007700020680122816862F30921816010BD00BFF9
:1007800021684FF28102C0F2FA229042886805D8AF
:10079000022262F30920886010BD00BF40F440705F
:1007A000886010BDC009D0E74009CEE70009CCE75A
:1007B000000ACAE78009C8E770B504460068826885
:1007C000836802F0040203F00803D2186CD0C268F8
:1007D000920121D5627E012A1ED1227E012A1BD1DF
:1007E0000168490613D44DF60441C0F20C010439E6
:1007F00050D0026852065CBF02685FEA426206D4CB
:10080000026852065CBF02685FEA4262EFD540218F
:100810000160012106E000BF022903D10221082660
:1008200012E000BF826852070AD58268920707D497
:100830004FF6C0738268C7F6FF731A4010328260A9
:1008400001294FF0040610D0826812070AD5826889
:10085000920707D44FF6C0738268C7F6FF731A4039
:1008600020328260032908BF0C2601F06DFA21684E
:100870008968314218D0054603E000BF80683042E5
:1008800012D001F061FA401B06282068F6D3816877
:100890003142F3D0206E40F010002066606E40F0D0
:1008A00001006066012070BD002070BD00000000E6
:1008B000F0B581B0044600688168C9074AD14FF697
:1008C000C0778168C7F6FF7707F17F0211420BD02E
:1008D000206E40F010002066606E40F001006066FF
:1008E000012001B0F0BD00BF8168394041F0010135
:1008F000816001F029FA42F2000246F20836C4F2A1
:100900000202216802F5807302F54275C5F60206FF
:10091000994208BF2E46914208BF2E46994205468D
:10092000306814D110F01F0014D110E08868C0079F
:1009300004D18868384040F00100886001F004FA72
:10094000401B2168032802D30868C007C0D008688C
:10095000C007EBD0002001B0F0BD00000000000097
:1009600001EE100AB8EE411A21EE000A9FED021ABC
:1009700080EE010A704700BF00FF7F4700000000C3
:10098000FEE70000000000007047000000000000CB
:10099000EFF3108072B600BFFEE700000000000019
:1009A00090F85C20012A01D102207047B0B582B0D6
:1009B00042F2083200230193C4F202020093A2F52E
:1009C00042740368A34227D14FF6006C4FF60055DE
:1009D000CFF6FF7CCFF6FF7552F80C4053592343F6
:1009E0005B0719D4D1F800E01368BEF1000F23F4BF
:1009F00040441FD04B6823431360535952F80C50A6
:100A00002B43DB0722D1136840F61F75AB4389687F
:100A1000194341EA0E0118E0016E41F02001016620
:100A20000121002280F85C2002B0BDE8B0400846F9
:100A3000704700BF1460515952F80C301943C90770
:100A400004D1116840F61F73994311600021E8E753
:100A50002DE9F04381B00022009290F85C20012A39
:100A600004D10221084601B0BDE8F08303680122E9
:100A700080F85C209A68520700F1148246F2083C24
:100A80004FF6FF7EC5F6020CC0F20F0EACF54278B1
:100A90000C68434516D0B4F1FF3F13DD94FAA4F57A
:100AA00014EA0E0FB5FA85F54FF0010608BFA50E42
:100AB000A40E05F01F0506FA05F5DE693543DD6174
:100AC00001E000BFA40E4D681F2204F01F04C5F30F
:100AD000012605F01F05AA4003EB8606AC40376BE4
:100AE00027EA0202224332639A689C6802F00402F9
:100AF00004F00804121940F004810A6807268D6882
:100B00004345C2F34064C2F3045203EB840406FA83
:100B100002F6676905FA02F227EA060642EA0602C9
:100B2000626117D041F20002C5F60042126802F07D
:100B30007042B2F1805F73D14A69DC680E2505EA24
:100B4000540402FA04F90C694F46042C00F0828028
:100B5000A8E000BF4FF60452CFF6FF72D1E904457A
:100B6000042C5CF8026065D14FF65852CFF6FF7244
:100B70005CF802201A6E0E68C2F3846216EA0E0454
:100B8000C6F3846596FAA6F6B6FA86F6374608BF27
:100B90002F46BA420CD11A6E22F000421A660A6839
:100BA00002EA0E04C2F3846592FAA2F2B2FA82F665
:100BB0005A6E37465A6E002C08BF2F46C2F3846225
:100BC000BA420CD15A6E22F000425A660A6802EA12
:100BD0000E04C2F3846592FAA2F2B2FA82F69A6E19
:100BE00037469A6E002C08BF2F46C2F38462BA4281
:100BF0000CD19A6E22F000429A660A6802EA0E044C
:100C0000C2F3846592FAA2F2B2FA82F6DA6E002C8E
:100C1000DA6E08BF2E46C2F38462B2423AD070E068
:100C2000DA684C69DD68D2064FEA55050AD405F04A
:100C30000E0209E006224FF0004902EA960205FA88
:100C400002F72FE005F0080204FA02F90C694F469A
:100C5000042C27D11A6E0C6802F0F842A406A242B6
:100C600040F082801A6E22F000421A665A6E02F03C
:100C7000F842A24200F07E809A6E02F0F842A24250
:100C800003D19A6E22F000429A66DA6E02F0F842C0
:100C9000A24236D1DA6E22F00042DA669A68D207B2
:100CA00033D0B8E003F160060A68434502F0F84229
:100CB00056F8245042EA090218BF05F000474345A0
:100CC00042EA070246F824200C695FD091F82120FF
:100CD0000D7E56F8247027F00047012A08BF07F15F
:100CE00000476A1EB2FA82F246F8247052090C6973
:100CF000D2021D6904F01F0425F4F045A2402A43E6
:100D00001A619A68D20740F08680ACF516724345A6
:100D100018BF03F1C002CD680C6805F0180516680D
:100D200004EA0E072EFA05F5BE432C403443146046
:100D30000024CA68C4F2FF74A24268D10C6814EAA5
:100D40000E0F3FD094FAA4F2B2FA82F2013202F00E
:100D50001E07092F02F01F073DD8012207EB4706A7
:100D6000BA4042EA065742E05A6E02F0F842A24206
:100D70007FF482AF5A6E22F000425A669A6E02F0F9
:100D8000F842A2423FF47DAF7FE700BFACF52A7284
:100D9000CD6952F8246026F08076354342F824501D
:100DA0000C6991F8205052F82460012D26F000764D
:100DB00008BF06F1007642F824609A68D207A4D0F2
:100DC00029E000BF012202EB946202F01E070A2F05
:100DD00002F01F07C1D3012207EB4706BA400027E4
:100DE000CFF6206707EB06573A4342F00077C7F388
:100DF00040620725C7F304578E6803EB8202BD40AB
:100E0000546906FA07F724EA05052F4357610E686F
:100E1000B6F1FF3F02DD002149E000BF42F20001D0
:100E200042F20015C4F20201C4F2020501F580721B
:100E300001F542779342624608BF3A468B4208BFAB
:100E40003A4643F48077AF42156823D18A68D1F8D7
:100E500008111143C90725D1002105F0E074CCF237
:100E600052718E4208BF15F4000127D00021CCF248
:100E700021318E4260D10021B1EB146F5CD143452A
:100E800015D1DCF8001021F0E071214341F08071B0
:100E900065E000BF4FF60051CFF6FF715CF801101E
:100EA000C907D9D0016E41F020010166012100225D
:100EB00080F85C20084601B0BDE8F0834345AAD124
:100EC000DCF8001042F6635221F0E071C0F23E52AD
:100ED000214341F40001CCF8001040F20801C2F2B5
:100EE000000109688909A1FB02129109022202EBA3
:100EF00041010091009900298DD00099013900919C
:100F0000009900293FF487AF0099013900910099B9
:100F100000293FF480AF0099013900910099002920
:100F20003FF479AF009901390091009900294FF001
:100F30000001E2D1BBE700BF43454FF00001B6D14D
:100F40000022CCF68432964208BF15F48002AED15E
:100F5000DCF8001021F0E071214341F48001CCF86D
:100F600000100021A3E700000068006C704700003B
:100F7000F0B581B04FF00001009178B3016E39B93E
:100F8000044600F07DF920460021616684F85C107B
:100F900001688A6892004FF6C072C5F6FF7202D5EA
:100FA0008B6813408B608B68DB0032D48B6802F156
:100FB00080521A4042F6635342F080528A6040F2F7
:100FC0000802C0F23E53C2F2000212689209A2FB6C
:100FD0000323012202EB931206E000BF0124204606
:100FE00001B0F0BD009A013A0092009A8AB1009ACD
:100FF000013A0092009A62B1009A013A0092009A76
:10100000002A1FBF009A013A0092009A18BF002AD6
:10101000E8D18A68D20009D4026E012442F010029D
:101020000266426E42F00102426600E000248A68D5
:10103000036E03F0100302F00402D218026E59D1BD
:1010400022F4817246F2100C023202668A68C5F6FA
:10105000020CD20724D142F2001341F48072C4F290
:1010600002039A4242F20002C4F2020240F0F0800F
:101070009368D2F808512B43DB0711D102F5807336
:1010800002F5427599422B4618BF0CF53E7391420A
:1010900008BF2B4642681D6825F47C152A431A6058
:1010A000427EC56BACF11006B14245EA423529D00B
:1010B00082682A4390F82050012D42EA054506D166
:1010C000426A0023CFF6FE7303EB42421543826A65
:1010D00022B102F47872C36A1A431543B1421FD099
:1010E0004CF20303CA68CFF6F0731A402A43CA6071
:1010F00028E000BF42F0100101240166204601B043
:10110000F0BD00BFD0E9022E082A00F0A9800C2A09
:1011100000F0A4801C2A40F0A5801022A5E000BFAA
:1011200044F207035CF8042CCFF6F0731A402A430C
:101130004CF8042CDCF80020436B22F040621A4388
:10114000CCF800208A688B6802F0040203F00803E0
:10115000D2186AD1027EB1424FEA823226D0036BA6
:10116000CF6844F20305AF433B431A43CA6090F88B
:101170004420012A48D14FF61E030A69CFF60043E6
:101180000125D0E912761A40CFF6FF7505EB074727
:101190003243066D3A43476D3243036C3A430A616A
:1011A0000A6922F070421A430A613AE05CF8043C92
:1011B00090F8385044F2030E90F8447023EA0E037E
:1011C00043EA4503012F42EA03024CF8042C1BD1E9
:1011D0004FF61E02DCF80010CFF600421140D0E9B5
:1011E00012231143026D1943436D1143026C1943DD
:1011F00041F00101CCF80010DCF8001021F0704142
:101200001143CCF8001010E00A69B14222F001024B
:101210000A610A69036C22F0704242EA03020A6121
:1012200003D00546FFF748FA2846016802690B6BB0
:10123000012A23F00F0202D1C369013B1A430A635A
:101240000122016E62F301010166204601B0F0BD8A
:101250005CF8083CDB073FF411AF21E7082204E00B
:10126000002202E0182A18BF002242EA0E022A4396
:1012700090F82050012D42EA05453FF421AF26E7C2
:1012800070B586B042F200120068C4F2020200217A
:1012900090420591CDE90311CDE901113AD042F216
:1012A0000001C4F20201884275D140F2780144F293
:1012B000E040C2F20001C5F602000A68002A02F10D
:1012C00001020A600BD150F8081C41F0200140F8DF
:1012D000081C50F8081C01F02001009100990168D9
:1012E000102641F001010160016801F00101009147
:1012F0000099016841F004010160006800F00400F9
:10130000009000200099C5F60200402100F500641D
:1013100033E000BF40F2780144F2E040C2F2000145
:10132000C5F602000A68002A02F101020A600BD128
:1013300050F8081C41F0200140F8081C50F8081C27
:1013400001F02001009100990168002441F004019E
:1013500001600168C5F6020401F0040100910099E2
:10136000016841F00101016000680C2600F00100F5
:101370000090009804F50060012101AD0191032166
:10138000029100210391294600F002FC20462946E3
:10139000019600F0FDFB06B070BD000000000000EB
:1013A0002DE9F04F81B042F2000746F20832C4F254
:1013B00002070446006807F5807907F54273C5F611
:1013C000020248458B4608BF1A46B84208BF1A4673
:1013D000D4F814801368B8F1080F03F01F0A01D184
:1013E00008250DE0BAF1090F3AD8012140F2212376
:1013F00001FA0AF1194233D0C068C00734D104257C
:1014000000F0A2FC21680A682A4241D106461BF17D
:10141000010034D0BBF1000F0DD100BF00F094FCEF
:101420002168086828420FD008682842F6D02FE0CB
:10143000086828422CD100F087FC801B21685845A1
:10144000F6D908682842F3D1206E40F004002066E7
:10145000002084F85C00032001B0BDE8F08F00BFDD
:10146000106810F4404FCAD0206E40F02000206673
:10147000012001B0BDE8F08F0868284208D1086853
:10148000284205D10868284204BF08682842F3D0E2
:10149000206E40F400702066C86810F4406F0FD1D1
:1014A000607E68B9086800070AD5206E20F4807055
:1014B0002066206EC00403D4206E40F00100206638
:1014C000494518BF0F46BAF1090F384608BF08460C
:1014D000BAF1050F08BF0846BAF1000F08BF084669
:1014E0008F4208BF3846B8F1080FC06802D1082003
:1014F00003E000BF400401D40C200860002001B0CC
:10150000BDE8F08F00000000F0B581B042F20004A9
:1015100046F20833C4F20204016804F5807504F54C
:101520004272C5F60203A94208BF1346A14208BF92
:1015300013461E688968490703D490F85C10012996
:1015400002D1022001B0F0BD012180F85C100746F5
:10155000FFF7AEF930B1002087F85C00012001B040
:10156000F0BD00BF39683846A94206F01F0218BF17
:101570000C463B6E40F60176671A23EA0606B7FA78
:1015800087F77F09FB0706F58077076600D11AB950
:10159000076E27F480170766076E0026FF044FF0DA
:1015A000000744BF476E27F0060747664FF01C0749
:1015B0000F6080F85C6043B9092A19D8012303FA47
:1015C00002F240F221231A4212D0CA68920104D5D5
:1015D000026E012363F30D3202664FF6C072886813
:1015E000C7F6FF72104004308860002001B0F0BDE3
:1015F000016E41F480110166E1688901F5D5016E43
:10160000012262F30D310166002001B0F0BD00003F
:10161000B0B5044690F85C00012801D10220B0BDAD
:1016200003212046012584F85C50FFF7C5F828B156
:10163000002084F85C002846B0BD00BF20688168A7
:101640008268D20717D011F0020114D1816801F02D
:101650000D01012926D14FF6C0728168C7F6FF72CD
:101660001140023181600321016000F06DFB2168AF
:101670008968C90708D1204641F20112002550F8B7
:10168000601F914316E000BF054602E08068C00776
:10169000F1D000F059FB401B03282068F6D3816885
:1016A000C907F3D0206E012540F0100020662046C7
:1016B00050F8641F41F001010160002084F85C00D3
:1016C0002846B0BD00000000B0B5044600F03CFB69
:1016D00040F200010546C2F20001621C097818BF01
:1016E0000C4400BF00F030FB401BA042FAD3B0BD59
:1016F000F0B12DE9F04F83B04AF200080446C4F27D
:1017000000080068404533D094F89810B9B3816957
:1017100021F01001816100F017FB05462068816906
:10172000090707D500F010FB401B0B28F6D312E089
:1017300001207047816941F00101816100F004FBE3
:10174000054600BF20688169C90721D100F0FCFA75
:10175000401B0B28F6D30120D4F89C100843C4F892
:101760009C00032084F89800012003B0BDE8F08FAE
:1017700008F58071616094F898100029C7D10020A5
:1017800084F89900204600F0B3F92068BFE700BF55
:10179000816941F002018161217C826922F040026D
:1017A000012918BF40328261617C826922F4804243
:1017B000012908BF02F580428261A17C826922F47E
:1017C0008052012918BF02F580528261816921F49B
:1017D0004073D4E902120B438361836923F0A403AD
:1017E0008361036923F0100303619AB1012A0DD0CC
:1017F000022A09D08369032A43F0800383610369C5
:1018000043F01002026105D1202200E00422836926
:101810001A438261D4E90572E369561E6FF0FF0234
:10182000256A02EB0323B1F5407F43EA4663A5F145
:10183000010646EA030640F20003CFF6FF7303EB0E
:10184000074746EA0701C16110D1D4E90B65D4E925
:101850000917013F02EB06226FF00F063A4306EB31
:1018600005173A4303EB01411143C160236E2BB1CD
:10187000616ED0F8C0201143C0F8C010E16DCDE911
:101880000113D94246F2AC21C0F6000109D0D0F8CC
:10189000C820A36E22F0070251F823301A43C0F883
:1018A000C820D4F840C0BCF1000F09D0D0F8BC204B
:1018B000636C22F0070251F823301A43C0F8BC20B1
:1018C000D4F848B0BBF1000F0AD0D0F8BC20E36CCC
:1018D00022F0700251F8233042EA0312C0F8BC2013
:1018E000D4F850A0BAF1000F0AD0D0F8BC20636D34
:1018F00022F4E06251F8231042EA0121C0F8BC1042
:10190000404504D161688A6822F003028A600021A0
:10191000C4F89410C4F89C10012184F8981004F1C4
:101920003409D0F884104FF6FC729143656C99E845
:101930000C02009541EA8201C0F88410D0F88410AE
:1019400021F47F0141EA0341C0F884109918D0F8CE
:1019500088306FF38F0343EA8103C0F88830D0F8F2
:10196000883023F4FE0343EA0943C0F8883001EBD2
:101970004903D0F8A0606FF38F0646EA8306C0F8EB
:10198000A060D0F8A06026F4FE0646EA0C46C0F837
:10199000A06005FB0C36D0F8B0306FF38F0343EA3C
:1019A0008603C0F8B030D0F8B03023F4FE0343EA29
:1019B0000B43C0F8B030E36CD0F8AC506FF38F0538
:1019C00003FB0B6645EA8605C0F8AC50D4F854809A
:1019D00008FB0A65D0F8F0606FF38F0646EA8506CB
:1019E000C0F8F060D0F8F0E0A66D2EF47C1747EA5E
:1019F0000647C0F8F070F70007EB8507D0F8C05035
:101A00006FF38F052F43C0F8C070D0F8C070009DF1
:101A1000DDF804E027F47C1705FB0CFC4AF2000516
:101A200047EA0E47C0F8C070C4F2000503FB0BC3C1
:101A300005F54067D0F8C05007EB820207EB810143
:101A400025F07C57029D47EA0567C0F8C07001EB9E
:101A5000C90008FB0A372167A16E00EB8C0C606798
:101A600000EB8303E266C4E91EC30EFB01F300EB47
:101A700087006943C4F8800000EBC600C4F8840006
:101A800000EB8300C4F8880000EB81004DF2FC31CC
:101A9000C4F20001C4F89000884201D920205BE61E
:101AA00082421FD21146002041F8040BD4F8903036
:101AB0009942BFF45AAE506002F10801D4F8903058
:101AC00099423FBF906002F10C01D4F890309942E6
:101AD000BFF44BAED0601032D4F890108A42E1D3FC
:101AE00043E600BF002003B0BDE8F08F0000000017
:101AF000B0B5B6B0044602A80830B0210025319533
:101B0000CDE93455CDE93255FEF7DEFC4AF200410D
:101B10002068C4F20001884202D036B0B0BD00BFD8
:101B20004FF4004002904FF080501D9002A80395A2
:101B300000F012FE08B1FEF72BFF44F2E040C5F6BC
:101B40000200C16841F48071C160C16801F4807114
:101B500001910199016841F002010160006831A919
:101B600000F00200019001984FF4405031900220A3
:101B700032900020CDE933000920359040F200403A
:101B8000C5F6020000F004F836B0B0BD0000000059
:101B90002DE9F04F83B00F68002F00F0C98000F1ED
:101BA000264642F2004506F1FF76C5F602050A22F6
:101BB000A8424FEAB62540F2040C08BF092200F102
:101BC00020030093082DC5F6000C38BF4FEAB6225B
:101BD000002400264FF0000801920AE008F10108F5
:101BE0000F6837FA08F206F1020604F1040400F067
:101BF0009F80012202FA08FE17EA0E09EED0D1F802
:101C000004B003220BF00307B2407D1E6FEA020A04
:101C1000012D11D88268CD6802EA0A02B5402A4334
:101C20008260CBF30015426822EA0E0205FA08F53D
:101C30002A43426004E000BF032F01D103271FE0C5
:101C4000C2688D6802EA0A02B540022F42EA050224
:101C5000C26015D16FF0030204F01C0502EA580BB4
:101C6000009A0F2352F80BE0AB400F692EEA0303F2
:101C7000AF403B4342F80B30D1F804B00BF0030700
:101C8000026807FA06F302EA0A021BF4403F42EA3E
:101C900003020260A2D044F2F44340F2084EC5F6BB
:101CA0000203C5F6000E0F251A6842F002021A6000
:101CB0001A6802F00202029228F00302029B04F06A
:101CC0000C0352F80E709D40AF43019D05FA03F3DB
:101CD0003B4342F80E304FF0B04EDEF800204B6828
:101CE00042EA0907DD0258BF22EA09079D02CEF841
:101CF0000070DCF8002042EA090758BF22EA090711
:101D00009D03CCF80070DCF8802042EA090758BF38
:101D100022EA0907DB03CCF88070DCF87C2042EA79
:101D2000090758BF22EA0907CCF87C7056E700BFC4
:101D300003B0BDE8F08F0000002A08BF09048161EC
:101D4000704700000000000040F2C820C2F20040CE
:101D5000006870470000000040F2000040F2C82117
:101D6000C2F20000C2F2004100780A681044086024
:101D7000704700000000000080B5032000F0E8F884
:101D800001F0DEFB44F2184146F20433C5F60201CD
:101D9000C0F600030A68C2F303229A5C096801F0E6
:101DA0000F0102F01F02595CD04040F20C02C2F257
:101DB000000201F01F0120FA01F1116040F2080158
:101DC000C2F2000108600F2000F00AF800281CBFD2
:101DD000012080BD00F07CF8002080BD00000000E4
:101DE000B0B540F20005C2F200052978F1B1044611
:101DF00040F20800C2F200004FF47A72B2FBF1F137
:101E00000068B0FBF1F001F0BFFE0F2C01464FF06F
:101E100001000AD8002918BFB0BD4FF0FF300022E2
:101E2000214600F065F800206C60B0BD0120B0BD17
:101E300010B54EF6A05E4378CEF2000E90F800C0CA
:101E40004EF8083CDEF8003023F00103CEF80030F5
:101E500043684EF8043C037BC27A817A447B1206C5
:101E600042EA0372837B42EAC141C27B41EA844178
:101E7000447A41EA4341007A41EA024141EA0421BD
:101E800041EA400040EA0C00CEF8000010BD00001E
:101E90004EF62450CEF20000BFF35F8F016821F4AC
:101EA00080310160002101677047000000000000E0
:101EB0004EF6245140F00100CEF200010867086898
:101EC00040F480300860BFF34F8FBFF36F8F7047CF
:101ED00081B044F2F440C5F60200016841F002010D
:101EE0000160006800F002000090009801B07047A7
:101EF00070B54EF60C5C4FF0FF36CEF2000C00F1E0
:101F0000604505F56445DCF80030C3F3022E8EF021
:101F10000703042B28BF0423BEF1030406FA03F3CE
:101F200021EA030100F00F0338BF0024043B00281E
:101F3000634406FA04F048BF03F10C05A14022EA0D
:101F4000000008430001287070BD00000000000080
:101F50004EF60C514FF6FF03CEF200010A681A400C
:101F600060F30A2242F0806040F0FD700860704724
:101F7000B0B544F60C05C5F602052968490729687D
:101F800006D401F00701081A18BF0120B0BD00BF38
:101F900021F0070108432860FFF7D6FE044600BF82
:101FA00055F8080C800407D4FFF7CEFE001BB0F5EF
:101FB0007A7FF5D90120B0BD0020B0BD000000003F
:101FC00080B501F035FA44F2204146F20432C5F6FC
:101FD0000201C0F600020968C1F30211515C01F070
:101FE0001F01C84080BD000080B544F2304EC5F6E8
:101FF000020E5EF8083C5EF8081CC1F3051C5EF892
:10200000041CBCF1000FDEF8042019D001F001011E
:10201000494201EAD20103F003026FF35F31022A61
:1020200000EE101AB8EE400A14D0012A0ED01AB9E8
:102030005EF8301C890611D49FED361A1CE000BFF3
:1020400000218160C0E9001180BD00BF9FED2F1A03
:1020500012E000BF9FED2E1A0EE000BF5EF8301CAC
:1020600049F20002C0F2D032C1F3C10122FA01F1FB
:1020700001EE101AB8EE411ADEF800109FED263A74
:102080006FF35F2102EE101ADEF80010C1F3462153
:10209000B8EE422A00EE032A00EE10CAB7EE003A6C
:1020A000B8EE400A81EE000A32EE031A02EE101A70
:1020B000B8EE422A20EE010A32EE031A80EE011A2F
:1020C000BCEEC11A80ED001ADEF80010C1F3064123
:1020D00001EE101AB8EE411A31EE031A80EE011A21
:1020E000BCEEC11A80ED011ADEF80010C1F30661E2
:1020F00001EE101AB8EE411A31EE031A80EE010A11
:10210000BCEEC00A10EE101A816080BD0024744A33
:1021100020BC3E4C0024744C00000039000000003C
:1021200080B544F2384EC5F6020E5EF8103C5EF8FB
:10213000101C5EF80C2CC1F3053CDEF80410BCF159
:10214000000F15D0C908D20601EAE2716FF35F31C2
:1021500000EE101A03F003010229B8EE400A0DD078
:1021600081B95EF8381C890610D49FED361A1BE041
:1021700000218160C0E9001180BD00BF9FED301AD1
:1021800012E000BF9FED2D1A0EE000BF5EF8381C74
:1021900049F20002C0F2D032C1F3C10122FA01F1CA
:1021A00001EE101AB8EE411ADEF800109FED263A43
:1021B0006FF35F2102EE101ADEF80010C1F3462122
:1021C000B8EE422A00EE032A00EE10CAB7EE003A3B
:1021D000B8EE400A81EE000A32EE031A02EE101A3F
:1021E000B8EE422A20EE010A32EE031A80EE011AFE
:1021F000BCEEC11A80ED001ADEF80010C1F30641F2
:1022000001EE101AB8EE411A31EE031A80EE011AEF
:10221000BCEEC11A80ED011ADEF80010C1F30661B0
:1022200001EE101AB8EE411A31EE031A80EE010ADF
:10223000BCEEC00A10EE101A816080BD0024744A02
:1022400020BC3E4C0024744C00000039000000000B
:1022500080B544F2404EC5F6020E5EF8183C5EF8BA
:10226000181C5EF8142CC1F3055CDEF80410BCF1F8
:10227000000F15D0C908D20501EAE2716FF35F3192
:1022800000EE101A03F003010229B8EE400A0DD047
:1022900081B95EF8401C890610D49FED361A1BE008
:1022A00000218160C0E9001180BD00BF9FED301AA0
:1022B00012E000BF9FED2D1A0EE000BF5EF8401C3B
:1022C00049F20002C0F2D032C1F3C10122FA01F199
:1022D00001EE101AB8EE411ADEF800109FED263A12
:1022E0006FF35F2102EE101ADEF80010C1F34621F1
:1022F000B8EE422A00EE032A00EE10CAB7EE003A0A
:10230000B8EE400A81EE000A32EE031A02EE101A0D
:10231000B8EE422A20EE010A32EE031A80EE011ACC
:10232000BCEEC11A80ED001ADEF80010C1F30641C0
:1023300001EE101AB8EE411A31EE031A80EE011ABE
:10234000BCEEC11A80ED011ADEF80010C1F306617F
:1023500001EE101AB8EE411A31EE031A80EE010AAE
:10236000BCEEC00A10EE101A816080BD0024744AD1
:1023700020BC3E4C0024744C0000003900000000DA
:1023800010B584B0024641F6FF7300209B1A70EB33
:1023900001032DDA47F6FF739B1A70EB010380F2FD
:1023A000878082F400430B4300F0EA8082F480339C
:1023B0000B4300F0098182F40022114340F0918127
:1023C00044F20040C5F60200816D01F44031B1F5E0
:1023D000003F00F03781B1F5803F00F029810029EE
:1023E00040F01F810068000100F1018119E100BF88
:1023F00040F2FF739B1A70EB01032DDB82F48073B4
:102400000B4300F0818082F48062114340F06981C7
:1024100044F20041C5F60201886DC0F34252042A1D
:1024200000F2FF8048F20000C0F2BB00DFE812F0CB
:10243000A600DC00E6005901060000BFC86C0A686F
:10244000520700F04052086802D5002A00F050817F
:10245000C00500F10E810FE182F400630B4300F030
:102460007B8082F48052114340F03B8144F2004172
:10247000C5F60201086DC0F30232042A00F2D180D1
:1024800048F20000C0F2BB00DFE812F07800AE00B6
:10249000B8002B01060000BFC86C0A68520700F0A4
:1024A0004052086840F1E380002A00F02181DEE01C
:1024B00082F400530B4300F0738082F48042114396
:1024C00040F00F8144F20044C5F60204A06DC0F351
:1024D0000270052800F2A580DFE810F00600F40085
:1024E000E200EE00E000140100F0A2FF216A46F2D3
:1024F0000432C0F60002C1F30211515C01F01F0169
:10250000C84004B010BD00BF44F20041C5F602014E
:10251000086D00F00702042A00F2838048F20000F0
:10252000C0F2BB00DFE812F02A0060006A00DD00A4
:10253000060000BFC86C0A68520700F040520868E5
:1025400002D5002A00F0D480C00540F19580B2F198
:10255000805F00F0E6808FE044F20041C5F60201A2
:10256000886DC0F30262042A5BD848F20000C0F212
:10257000BB00DFE802F0033943B6730008684EE0A1
:1025800044F20040C5F60200016D01F04051B1F186
:10259000005F3DD0B1F1805F40D000293CD040E0E9
:1025A00044F20040C5F60200016DC1F30241052965
:1025B00037D8DFE801F0032D8F99773104B0BDE8FB
:1025C000104000F05DBF00BF44F20040C5F60200BD
:1025D000C16C0068C90322D5000122D501A8FFF70C
:1025E0009FFD039804B010BD0868000119D501A82B
:1025F000FFF796FD019804B010BD00BF0868800089
:102600000FD501A8FFF724FE019804B010BD00BF4C
:102610000068000105D558E0006874E0006880019A
:1026200002D4002004B010BD01A8FFF7DDFC57E084
:1026300000688000F5D501A8FFF70AFE039804B0F2
:1026400010BD00BFC16C0268520701F04051026822
:1026500062D5002960D1C2F3C1004BE0C86C0A68A2
:10266000520700F04052086801D5002A40D0C0054A
:1026700002D5B2F1805F54D00868B2F1005F00F477
:1026800000314FF0000004BF4FF28000C0F2FA208A
:10269000002908BF084604B010BD00BF206802E052
:1026A000206818E0006840F60011C005C0F23D0146
:1026B00001EAE07004B010BD20684007B1D5206881
:1026C00016E000BF20680001ABD501A8FFF728FD88
:1026D00006E000BF00688000A3D501A8FFF7B8FDA1
:1026E000029804B010BD00BF0168490799D5006881
:1026F000C0F3C10049F20001C0F2D03121FA00F06C
:1027000004B010BD20684FF280018003C0F2FA21AE
:1027100001EAE07004B010BDD20509D5B1F1805FC7
:1027200006D140F60010C0F23D0004B010BD00BF5D
:102730000068B1F1005F00F400324FF0000004BF08
:102740004FF28000C0F2FA20002A08BF104604B001
:1027500010BD0000000000002DE9F0470446C078DD
:1027600044F22C480007C5F6020828D5606E4FEAEF
:10277000305103292AD8DFE801F0030B131B00BFF7
:10278000D8F8001041F40031C8F8001010E000BF84
:1027900004F10800022102F04FFB064680B906E072
:1027A00004F12800022102F0DBFB064640B9606E0E
:1027B000D8F8241021F440110843C8F8240000265A
:1027C0006078C00706D135462FE000BF012660784B
:1027D000C007F8D0A06D04283ED83546DFE800F0E9
:1027E00004140E0B0B0000BFD8F80000354640F46F
:1027F0000030C8F800002F46C5B90DE004F12800EC
:10280000002102F0ADFB04E004F10800002102F019
:1028100013FB05462F464DB9D8F82400A16D20F0D2
:10282000070000250843C8F82400374660784007B1
:102830003AD5D4F8A4004FEA7050052818D8DFE83C
:1028400000F0031D11232323D8F8000040F40030CA
:10285000C8F8000018E000BF012501276078400794
:10286000E7D421E004F12800002102F079FB0AE01E
:1028700001250126607800071AD44FE004F1080012
:10288000002102F0D9FA05462E461DB160780007F6
:102890000ED443E0D8F82C00D4F8A41020F4600043
:1028A00000250843C8F82C003E466078000735D55F
:1028B000D4F8A8004FEA3060052813D8DFE800F00C
:1028C00004180C1E1E1E00BFD8F8000040F4003093
:1028D000C8F8000012E000BF04F12800002102F057
:1028E0003FFB0AE001250127E07880071AD434E095
:1028F00004F10800002102F09FFA05462F461DB1A1
:10290000E07880070ED428E0D8F82C00D4F8A8107E
:1029100020F0E06000250843C8F82C003746E07836
:1029200080071AD5E06C4FEA3010032838D8DFE86A
:1029300000F009032D0900BFD8F8000040F4003072
:10294000C8F800002E464DB9D8F82000E16C20F000
:10295000300000250843C8F820003E466078C006D5
:1029600039D5E06D4FEA3030042847D8DFE800F071
:1029700004221C0A0A0000BFD8F8000040F400300E
:10298000C8F800002F463DBB1CE000BF04F1080062
:10299000022102F051FA0546002D2E46DED1D3E782
:1029A00001250126DAE700BF04F12800002102F02A
:1029B000D7FA04E004F10800002102F03DFA0546D0
:1029C0002F464DB9D8F82400E16D20F4E0400025F1
:1029D0000843C8F8240037466078800635D5206E55
:1029E0004FEA3040052815D8DFE800F0041A0E043D
:1029F000040400BF2E46DDB91EE000BF01250127FB
:102A000060788006EBD420E004F12800012102F078
:102A1000A7FA0AE0012501266078400619D449E0AA
:102A200004F10800012102F007FA05462E461DB107
:102A3000607840060DD43DE0D8F82400216E20F4E3
:102A4000E02000250843C8F824003E466078400690
:102A500030D5D4F8AC004FEA307005280ED8DFE846
:102A600000F00313070303032F46ADB918E000BFBE
:102A700004F12800012102F073FA0AE00125012780
:102A8000607800061AD43CE004F10800012102F04D
:102A9000D3F905462F461DB1607800060ED430E00C
:102AA000D8F82C00D4F8AC1020F0E0400025084302
:102AB000C8F82C0037466078000622D5E06E58B181
:102AC000B0F1005F0CD0B0F1805F37D1D8F80000D2
:102AD00040F40030C8F800002E469DB908E000BF61
:102AE00004F10800012102F0A7F905462E464DB970
:102AF000D8F82400E16E20F0405000250843C8F8C3
:102B000024003E46E078C0071DD0A06C032855D8AD
:102B1000DFE800F008024A08D8F8000040F400306E
:102B2000C8F80000A9467DB9D8F82000A16C20F0B3
:102B3000030000250843C8F8200004E00125012611
:102B4000E078C007E1D1B146A078400602D44F46F4
:102B500018E000BFD8F8D40340F48070C8F8D4035C
:102B6000FFF7F2F8064600BFD8F8D403C00507D433
:102B7000FFF7EAF8801B6428F6D90325032701E054
:102B80002F46FDB12078C00700F06F80A06F4FEA9C
:102B9000F00005284ED8DFE800F003534703030395
:102BA000002D2E4654D157E004F10800022102F016
:102BB00043F90546002DA946C6D1B5E701254FF0DA
:102BC0000109C1E7D8F84410D4F8B000414011F42D
:102BD000407F11D0D8F84410D8F8442042F4803215
:102BE000C8F84420D8F8442021F4407122F48032FF
:102BF000C8F84420C8F84410B0F5807F40F0D08277
:102C0000FFF7A2F8064641F2883A0325032700BFE2
:102C1000D8F84400800700F1C182FFF795F8801BC7
:102C20005045F5D9AEE700BF04F12800012102F0BC
:102C300097F90AE0012501262078800719D446E09B
:102C400004F10800012102F0F7F805462E461DB1F7
:102C5000207880070DD43AE0D8F82800A16F20F042
:102C6000380000250843C8F828003E462078800731
:102C70002DD5606F05280FD8DFE800F00414080494
:102C8000040400BF2F46ADB918E000BF04F12800CE
:102C9000012102F065F90AE00125012720784007AB
:102CA00019D447E004F10800012102F0C5F80546F7
:102CB0002F461DB1207840070DD43BE0D8F82800FE
:102CC000616F20F0070000250843C8F82800374648
:102CD000207840072ED5D4F8900005280ED8DFE8DC
:102CE00000F00313070303032E46ADB918E000BF3D
:102CF00004F12800012102F033F90AE00125012640
:102D0000207880061AD44BE004F10800012102F07B
:102D100093F805462E461DB1207880060ED43FE07C
:102D2000D8F82C00D4F8901020F0070000250843B4
:102D3000C8F82C003E462078800631D5D4F88C00A7
:102D40004FEA307005280FD8DFE800F004140804BB
:102D5000040400BF2F46ADB918E000BF04F12800FD
:102D6000022102F0FDF80AE0012501272078400643
:102D70001AD44BE004F10800002102F05DF805468A
:102D80002F461DB1207840060ED43FE0D8F8280029
:102D9000D4F88C1020F0E04000250843C8F8280043
:102DA00037462078400631D5D4F898004FEAB02055
:102DB00005280FD8DFE800F004140804040400BF5D
:102DC0002E46ADB918E000BF04F12800022102F040
:102DD000C7F80AE001250126207800061AD44EE043
:102DE00004F10800002102F027F805462E461DB127
:102DF000207800060ED442E0D8F82C00D4F89810C1
:102E000020F4E05000250843C8F82C003E46207806
:102E1000000634D5D4F89C004FEA7030052815D848
:102E2000DFE800F0041A0E04040400BF2F46E5B1E9
:102E30002068010727D4C1063ED4000355D477E0AB
:102E400004F12800022102F08BF80AE00125012795
:102E500020680107EFD516E004F10800002101F019
:102E6000EBFF0546002D2F46E2D1D8F82C00D4F810
:102E70009C1020F4604000250843C8F82C00374619
:102E800020680107D7D5D4F88000B0F5805F09D15C
:102E900004F12800022102F063F8002818BF01277E
:102EA000D4F88000D8F8281021F440510843C8F81D
:102EB00028002068C106C0D5D4F89400B0F5807F02
:102EC00009D104F12800022102F04AF8002818BFB5
:102ED0000127D4F89400D8F82C1021F4407108434D
:102EE000C8F82C002068000322D5D4F8A000B0F563
:102EF000003F11D0B0F5803F08D0002844D104F144
:102F00000800002101F098FF05E000BF04F128004F
:102F1000022102F025F805462E4655B9D8F82C00B6
:102F2000D4F8A01020F4403000250843C8F82C0045
:102F30003E46A07840072CD5D4F88400B0F5401F59
:102F40000BD0B0F5001F0BD0B0F5801F2AD1D8F8F8
:102F5000000040F40030C8F800002F46D5B907E063
:102F600004F12800012101F0FBFF05462F468DB931
:102F7000D8F82800D4F8841020F440100025084325
:102F8000C8F8280005E000BF01250126A078400709
:102F9000D2D43746A078C00709D13E4621688800C0
:102FA00015D532E001250127A078C007F5D0206DA6
:102FB000B0F5803F10D018BBD8F8000040F40030C6
:102FC000C8F800002E4685B1216888001DD46068CD
:102FD0008A0326D465E000BF04F10800022101F055
:102FE0002BFF0546002D2E46EED1D8F82000216D8E
:102FF00020F4803000250843C8F82000CDE700BF4A
:103000000125012621688800E1D504F1280002216C
:1030100001F0A6FF002818BF0126D4E900108A039A
:103020003FD5E26F6FF0010303EB3223022B0BD38A
:103030004FEA322343B1012B40F0AA80D8F8003088
:1030400043F40033C8F8003025B3CA022CD48A02F6
:1030500034D44A003CD4CA0F49D1090251D4C10723
:103060005AD1810763D441076CD4010776D4C106D5
:1030700000F18080800607D504F12800022101F0CC
:103080006FFF002818BF0125002D18BF0125284615
:10309000BDE8F087D8F8283023F440731A43C8F805
:1030A00028203546CA02D2D5D8F82420236F22F032
:1030B00000421A43C8F824208A02CAD5D8F824202E
:1030C000A36E22F080721A43C8F824204A00C2D5A9
:1030D00058F81C2C22F4004248F81C2CD4F8B420D8
:1030E00058F81C3C1A4348F81C2CCA0FB5D0D8F825
:1030F0002020636D22F040521A43C8F820200902B4
:10310000ADD5D8F82810D4F8882021F44001114317
:10311000C8F82810C107A4D004F10800002101F06C
:103120008BFE002818BF0546606881079BD504F117
:103130000800012101F080FE002818BF05466068E4
:10314000410792D504F10800022101F075FE002824
:1031500018BF0546606801077FF589AF04F12800B4
:10316000002101F0FDFE002818BF05466068C10679
:103170007FF580AF04F12800012101F0F1FE002865
:1031800018BF0546606880063FF576AF7CE700BF54
:103190000125CA027FF55BAF86E700BFD4F8B00017
:1031A0004FF6CF7358F81C2CC0F2FF0300F44071A7
:1031B00022F47C5203EA10136FF31F30B1F5407F05
:1031C00008BF1A43002548F81C2CD8F844100843BF
:1031D000C8F84400FFF7BBBC2DE9F04381B00028DC
:1031E00000F0208142F200090446C5F20029D9F816
:1031F000000000F00F0088420DD2D9F8000020F046
:103200000F000843C9F80000D9F8000000F00F00D3
:10321000884240F00781206844F218464207C5F60C
:1032200002060AD52269336803F070039A4204D972
:10323000336823F070031A43326002070AD56269CB
:10324000736803F070039A4204D9736823F0700323
:103250001A437260C2060AD5A269736803F4E06378
:103260009A4204D9736823F4E0631A4372608206B9
:103270000AD5E269B36803F070039A4204D9B368CF
:1032800023F070031A43B26010F002020AD0E36820
:10329000376807F00F07BB4204D9376827F00F07DC
:1032A0003B433360C3073FD0306820F47062D4E9F9
:1032B00001031A433260012856F8182C0AD003285B
:1032C00004D002280AD192030BD4ABE0920108D4B7
:1032D000A8E000BFD20504D4A4E000BF520740F12B
:1032E000A180884656F8081C21F00701084346F8DB
:1032F000080CFEF729FD054641F2883756F8080C00
:10330000616800F03800B0EBC10F09D0FEF71CFD7A
:10331000401BB842F2D9032001B0BDE8F08300BFE2
:103320002068414600F0020252B1E268336803F0BF
:103330000F039A4204D2336823F00F031A4332601A
:10334000D9F8002002F00F028A420CD9D9F80020E7
:1033500022F00F020A43C9F80020D9F8002002F039
:103360000F028A425ED141070AD52169326802F014
:103370007002914204D2326822F07002114331602F
:1033800001070AD56169726802F07002914204D2A5
:10339000726822F0700211437160C1060AD5A169FA
:1033A000726802F4E062914204D2726822F4E06230
:1033B0001143716080060AD5E069B16801F07001BF
:1033C000884204D2B16821F070010843B06000F077
:1033D000B7F8316846F20432C0F60002C1F30321A7
:1033E000515C336803F00F0301F01F01D25C20FA37
:1033F00001F102F01F0040F20C02C2F2000221FAB9
:1034000000F0106040F2040040F20802C2F2000036
:10341000C2F200020068116001B0BDE8F043FEF79F
:10342000DFBC00BF012001B0BDE8F0830000000058
:1034300080B500F085F844F2184146F20433C5F631
:103440000201C0F600030A68C2F303229A5C09680D
:1034500001F00F0102F01F02595C20FA02F201F0A4
:103460001F0040F20C01C2F2000122FA00F00860D5
:1034700040F20801C2F200010A6080BD00000000B5
:1034800080B500F05DF844F2184C46F20433C5F6FE
:10349000020CC0F60003DCF80020C2F303229A5CA1
:1034A000DCF8001001F00F0102F01F02595CD0405F
:1034B00040F20C02C2F2000201F01F0120FA01F1F9
:1034C000116040F20802C2F200021060DCF8040051
:1034D000C0F30210185C00F01F0021FA00F080BD5C
:1034E00080B500F02DF844F2184C46F20433C5F6CE
:1034F000020CC0F60003DCF80020C2F303229A5C41
:10350000DCF8001001F00F0102F01F02595CD040FE
:1035100040F20C02C2F2000201F01F0120FA01F198
:10352000116040F20802C2F200021060DCF80400F0
:10353000C0F30220185C00F01F0021FA00F080BDEB
:1035400044F20041C5F602010869C0F3C200032835
:1035500016D002280ED098BB0868800649F20000F9
:10356000C0F2D03058BF70470968C1F3C101C840EC
:10357000704700BF4FF28000C0F2FA20704700BFD2
:103580008A6A886AC0F3051CC86ABCF1000F4B6BDD
:103590001CD000F00100404200EAD3006FF35F301E
:1035A00000EE100A02F003000228B8EE400A0FD025
:1035B00090B90868800613D49FED251A1DE000BF5E
:1035C00040F60010C0F23D00704700BF0020704779
:1035D0009FED1E1A11E000BF9FED1B1A0DE000BF0A
:1035E000086849F20002C0F2D032C0F3C10022FAEA
:1035F00000F001EE100AB8EE411A086B9FED153A83
:103600006FF35F2002EE100A086BC0F34620B8EE9D
:10361000422A013000EE032A00EE10CAB7EE003A4B
:10362000B8EE400A81EE000A32EE031A20EE010ADB
:1036300001EE100AB8EE411A80EE010ABCEEC00A93
:1036400010EE100A704700BF0024744A20BC3E4CA4
:103650000024744C0000003970B3F0B581B004460A
:10366000007844F20046C007C5F6020626D120784D
:1036700080076AD5306910F03801B06A42D0182945
:1036800008BF5FEA80703DD0E0683168002800F034
:103690002D8121F0190108433060FEF755FB0546E6
:1036A000306840074AD4FEF74FFB401B0228F7D989
:1036B000032001B0F0BD00BF01207047306900F069
:1036C0003801B06A102905D018290BD100F0030089
:1036D000022807D130688003C9D560680028C6D1A8
:1036E000AAE000BF61683068002900F03981B1F5B7
:1036F000A02F00F02D81B1F5803F40F0478140F4CC
:10370000803049E130684007E06802D5002800F0C9
:103710009380316821F0190108433060FEF714FBF3
:10372000054600BF3068400708D4FEF70DFB401B7C
:1037300002284FF00300F5D901B0F0BD706821698F
:1037400020F0FE4040EA016070602078C0061AD583
:10375000306900F03801B06A082907D0182940F014
:10376000858000F00300012840F080803068C005AB
:1037700002D5E06980285FD1F068216A20F07C5092
:1037800040EA0160F060207800073FD4207880068E
:1037900056D42078400700F18180656A9DB3306976
:1037A00000F03800182840F01981012DB16A306B03
:1037B00042D001F00302A36A9A423DD1C1F3051140
:1037C000E26A914238D10146226B6FF35F21013AE0
:1037D000914231D1C0F34622616B01398A422BD12B
:1037E000C0F30642A16B01398A4225D1C0F30660BD
:1037F000E16B013988421FD1706BA16CC0F3CC0022
:10380000814240F0A581002001B0F0BD6069002830
:10381000706F59D040F001007067FEF795FA0546C9
:10382000706F8007B2D4FEF78FFA401B0228F7D9D9
:10383000032001B0F0BD00BF012001B0F0BD00BF0A
:10384000A0690028306871D040F480503060FEF7E5
:103850007BFA0546306880049BD4FEF775FA401B5E
:103860000228F7D9032001B0F0BD00BFE0690028AD
:10387000306800F0A18040F080003060FEF764FA0C
:10388000054600BF3068C0053FF576AFFEF75CFA2D
:10389000401B02284FF00300F4D94DE7D6F800048E
:1038A00040F48070C6F80004FEF74EFA054600BFEB
:1038B000D6F80004C0052BD4FEF746FA401B642856
:1038C000F6D9032001B0F0BD20F001007067FEF7CB
:1038D0003BFA0546706F80077FF558AFFEF734FA64
:1038E000401B02284FF00300F4D925E721F0010026
:1038F0003060FEF729FA0546306840077FF525AFAE
:10390000FEF722FA401B02284FF00300F4D913E718
:10391000A168306F002900F08B80052900F08080BD
:10392000012940F09D8040F001009FE020F480508C
:103930003060FEF709FA0546306880047FF529AF4C
:10394000FEF702FA401B02284FF00300F4D9F3E619
:1039500040F480203060306840F480301CE000BFCC
:1039600020F480303060306820F480203060FEF732
:10397000EBF90546306880037FF579AEFEF7E4F990
:10398000401B64284FF00300F4D9D5E620F48030C2
:103990003060306820F480203060FEF7D5F90546AD
:1039A000306880033FF563AEFEF7CEF9401B642814
:1039B000F6D9032001B0F0BD20F080003060FEF7A2
:1039C000C3F905463068C0057FF5DDAEFEF7BCF9EA
:1039D000401B02284FF00300F4D9ADE6306820F018
:1039E00080703060FEF7B0F9022D05460CD100BFA3
:1039F000306880014CD5FEF7A7F9401B02284FF034
:103A00000300F5D998E600BF306880017FF5FBAE72
:103A1000FEF79AF9401B02284FF00300F4D98BE619
:103A200040F004003067306F40F001001EE000BF3E
:103A300020F001003067306F20F004003067FEF79F
:103A400083F9054641F28837306F80077FF5A5AED0
:103A5000FEF77AF9401BB8424FF00300F4D96BE649
:103A600020F001003067306F20F004003067FEF76F
:103A70006BF9054641F28837306F80073FF58DAE10
:103A8000FEF762F9401BB8424FF00300F4D953E649
:103A900004F12807B06A40F2F33188438ECF08431F
:103AA000591E40EA02104FF47E426FF35F21B0626C
:103AB00002EB47204FF4FE0280B2E36B0844A16B97
:103AC00002EB01414FF0FE4201F4FE0102EB036202
:103AD000084402F0FE4108443063F06A4FF6F87182
:103AE00020F00100F062706BA26C884340EAC200D3
:103AF0007063F06A216C20F00C000843F062F06AF9
:103B0000616C20F002000843F062F06A40F48030FB
:103B1000F062F06A40F40030F062F06A40F4802015
:103B2000F062F06A40F00100F062306840F08070AE
:103B30003060FEF709F90446306880013FF563AE56
:103B4000FEF702F9001B02284FF00300F4D9F3E559
:103B5000F06A20F00100F062FEF7F6F80546FEF785
:103B6000F3F8A842FBD0706B4FF6F871A26C884353
:103B700040EAC2007063F06A40F00100F062002089
:103B800001B0F0BD00000000411E0020B0EB116F3D
:103B900002D00120704700BF4EF21002F023CEF297
:103BA000000251604EF62351CEF200010B70072146
:103BB000906011607047000090F83C20012A01D10C
:103BC00002207047B0B5D1E9022323F47C5322F4DC
:103BD000705242EA030548F2FF73D1E900CECEF6F7
:103BE000F0730EEA030203F5006445EA020E0CEAE4
:103BF00004050C6903F5C05245EA0E0522402A432C
:103C00004D692A4303F560550C6B03F5F0432A40D8
:103C100023401343026840F2004C42F48065C4F232
:103C2000010C8C69654540F2000CCEF6FF7CCD6935
:103C30000CEA044443EA050343EA040318D14FF6AF
:103C4000FF7540F2000CCDF60F458C6ACDF6F04CB6
:103C500003EA050E0D6A0CEA04544B6A44EA0E04AA
:103C600025F0085523F000532543C96A2B430B4325
:103C70005364002180F83C100020B0BD000000001B
:103C800090F83C20012A4FF0020266D0B0B580F8CF
:103C90003D2040F2004C0268C4F2010C42F4806303
:103CA00063455368D2F808E002BF23F470034C6800
:103CB00023434DF6FF740D68C4F2000423F0700333
:103CC000A24243EA0503536014DC40F2FF73C4F2DE
:103CD00000039A4222DD40F60003C4F200039A4238
:103CE0002ED040F60043C4F200039A4228D041F699
:103CF000000321E04FF6FF73C4F200039A4213DD84
:103D00000023C4F201039A421AD044F20003C4F221
:103D100001039A4214D0624512D016E0B2F1804FEE
:103D20000ED040F2004307E04EF20003C4F200035D
:103D30009A4205D04EF20043C4F200039A4204D1E5
:103D40002EF080038968194391600022012180F8D8
:103D50003D1080F83C20BDE8B040104670470000A0
:103D600090F83C30012B01D1022070474FEAB2029B
:103D7000052A00F223812DE9F041DFE812F0070067
:103D8000BB00570095003100F90000BF036843F6FF
:103D9000FF76C4F201061C6AB3421A6A24F00204D8
:103DA00022F001021A621A46D3F804C052F818EF42
:103DB0008D6844EA0504D1F8008040F3818144F223
:103DC0000007C4F20107BB4200F0858144F60007FA
:103DD000C4F20107BB4200F07E8144F2004776E165
:103DE000036843F6FF77C4F20107D3F820C0BB4253
:103DF0001A6A22F480321A621A465C6852F8546FCA
:103E00000D68D1F808E040F3DF8044F20007C4F207
:103E10000107BB4200F0E38044F60007C4F201074B
:103E2000BB4200F0DC8044F20047D4E0036840F27B
:103E3000004E43F48067C4F2010E1C6A77451A6A8B
:103E400024F4007422F480721A621A465D6852F8F3
:103E50001CCF8E6844EA062407D1CE6840F2FF47A3
:103E6000360224F44064BE43344343F6FF76D1F86F
:103E70000080C4F20106B34240F3D28044F200074E
:103E8000C4F20107BB4200F0D28044F60007C4F23E
:103E90000107BB4200F0CB8044F20047C4F20107A7
:103EA000BB4200F0C480C9E0036843F6FF77C4F268
:103EB0000107D3F820C0BB421A6A22F480521A626A
:103EC0001A465C6852F81C6F0D68D1F808E040F3A0
:103ED000CD8044F20007C4F20107BB4200F0D1805C
:103EE00044F60007C4F20107BB4200F0CA8044F266
:103EF0000047C2E0036840F2004E43F48067C4F21A
:103F0000010E1C6A77451A6A24F0200422F0100280
:103F10001A621A465D6852F818CF8E6844EA061491
:103F200007D1CE686FF0400724F0C00407EA0616F8
:103F3000344343F6FF76D1F80080C4F20106B34261
:103F400040F3E08044F20007C4F20107BB4200F0F6
:103F5000E08044F60007C4F20107BB4200F0D980BC
:103F600044F20047C4F20107BB4200F0D280D7E020
:103F7000036843F6FF77C4F20107D3F820C0BB42C1
:103F80001A6A22F480121A621A465C6852F8546F58
:103F90000D68D1F808E040F3058144F20007C4F24F
:103FA0000107BB4200F0098144F60007C4F2010793
:103FB000BB4200F0028144F20047FAE001210022F6
:103FC00080F83C20084670470027C4F20107BB4236
:103FD00005D040F20047C4F20107BB4204D14F694B
:103FE00024F4803444EA07244FF68C775C60CFF6E3
:103FF000FE7703373E402CF4003746EA05045C6543
:104000004E6809699E6547EA0E471F625F6D47F07B
:1040100008075F655F6D27F004075F65EEE000BF8E
:104020000027C4F20107BB4201D0734506D1D1E994
:104030000576374325F4405646EA07154FF68C7748
:104040005D60CFF6FE7707EA0C0747EA0807DF61F5
:104050004F680969DF631C62DF6947F00807DF61A9
:10406000DF6927F00407DF61C8E000BF0027C4F262
:104070000107BB4205D040F20047C4F20107BB4232
:1040800004D14F6924F4804444EA871448F6FF477A
:104090005C60CFF6FF673E402CF4005746EA0524EB
:1040A000DC614E6809691E6447EA0E371F62DF69EA
:1040B00047F40067DF61DF6927F48067DF619CE018
:1040C0000027C4F20107BB4205D040F20047C4F20A
:1040D0000107BB4205D1CF6824F00C0427F0040788
:1040E0003C43B34234DD44F20006C4F20106B3425D
:1040F00039D044F60006C4F20106B34233D044F28C
:1041000000462CE00027C4F20107BB4201D07345F2
:1041100006D1D1E90576374325F4406646EA87059E
:1041200048F6FF475D60CFF6FF6707EA0C0747EAEE
:1041300008279F614F6809699F631C629F6947F464
:1041400000679F619F6927F480679F6155E000BF0A
:104150000026C4F20106B34205D040F20046C4F284
:104160000106B34206D12CF44077D1E90565374307
:1041700047EA050C4FF68C75C3F804C0CFF6FE7500
:104180000EEA050747EA08079F614F6809695F6300
:104190001C629F6947F008079F619F6927F0040729
:1041A0009F612BE00027C4F20107BB4205D040F21B
:1041B0000047C4F20107BB4204D14F6924F48024B4
:1041C00044EA872448F6FF475C60CFF6FF6707F5AF
:1041D00040773E402CF4001746EA05245C654E68A3
:1041E0000969DE6547EA0E571F625F6D47F4006795
:1041F0005F655F6D27F480675F6509021368194387
:1042000011600021BDE8F041002280F83C20084602
:10421000704700000000000060B310B5044690F83D
:104220003D0028B9002084F83C00204600F024F826
:10423000022084F83D002068211D00F0E9FF0120E4
:1042400084F8480084F83E0084F83F0084F8400079
:1042500084F8410084F8420084F8430084F8440064
:1042600084F8450084F8460084F8470084F83D004F
:10427000002010BD0120704782B040F2004100686C
:10428000C4F20001884213D00021C4F20101884227
:104290001BD144F2E840C5F60200816841F00101FB
:1042A0008160806800F001000190019802B07047C1
:1042B00044F2E840C5F60200016841F002010160E5
:1042C000006800F002000090009802B07047000003
:1042D00080B5C9B10B1F4FF03F0C4FEAB30E43221C
:1042E000BEF1040F38BF0CEBB302825C012A13D17C
:1042F000BEF1030F1ED8DFE80EF00319111500BF41
:10430000022280F83F2018E090F83E20012A03D1D5
:10431000022280F83E2010E0012080BD022280F8B9
:1043200041200AE0022280F8422006E0022280F8C2
:10433000402002E0022280F84320026801F01F00C2
:10434000012101FA00F0116A814311624EF2FF313E
:10435000C4F200018A42116A40EA0100106215DCD1
:1043600040F6FF30C4F20000824227DCB2F1804FF9
:104370004ED040F20040C4F20000824248D040F6E5
:104380000000C4F20000824242D053E043F6FF70C6
:104390000021C4F20100C4F20101824244F2000093
:1043A000C4F201001EDC4EF20043C4F200039A4244
:1043B0002ED08A4224D040F200431DE040F6004057
:1043C000C4F20000824223D041F60000C4F2000093
:1043D00082421DD04EF20000C4F20000824217D08B
:1043E00028E000BF82420BD044F60003C4F2010370
:1043F0009A4205D044F20043C4F201039A4219D113
:10440000536C8A4243F40041516418BF82420BD17D
:1044100007219068C0F2010101400020062918BF61
:10442000B1F5803F06D180BD40F20040C4F20100EA
:104430008242EDD0106840F001001060002080BD85
:1044400090F88410012901D1022070472421C0F87E
:10445000881001680A680B6822F0005223F00103FB
:104460000B60002343660A602021C0F8881080F8A2
:10447000843000207047000090F88420012A01D188
:104480000220704770B52422C0F888200268D0F856
:1044900064E0BEF1000FD2F800C0136823F00103FE
:1044A0001360936823F0606341EA0301916019D0BF
:1044B000916846F22C3E9368C0F6000E5B0F46F200
:1044C0003435C1F34266C0F600051EF80340E95CCE
:1044D0002301B3FBF1F11EF80630AE5D1B01B3FB07
:1044E000F6F301E001210123A0F86A102021A0F8D1
:1044F0006830C2F800C0C0F88810002180F884102D
:10450000002070BD0000000090F88420012A01D135
:104510000220704770B52422C0F888200268D0F8C5
:1045200064E0BEF1000FD2F800C0136823F001036D
:104530001360936823F0604341EA0301916019D04E
:10454000916846F22C3E9368C0F6000E5B0F46F26F
:104550003435C1F34266C0F600051EF80340E95C3D
:104560002301B3FBF1F11EF80630AE5D1B01B3FB76
:10457000F6F301E001210123A0F86A102021A0F840
:104580006830C2F800C0C0F88810002180F884109C
:10459000002070BD0000000010B5D8B10446D0F86E
:1045A000880028B9002084F88400204600F028F80C
:1045B0002420C4F888002068A16A0268002922F03B
:1045C0000101016002D0204600F0E6FE204601F025
:1045D0000BF808B1012010BD2068416821F490411A
:1045E0004160816821F02A018160016841F0010188
:1045F00001602046BDE8104000F03EBF0000000012
:10460000B0B5B6B0044602A80830B02100253195F7
:10461000CDE93455CDE93255FBF756FF44F600415C
:104620002068C4F20001884202D036B0B0BD00BF9D
:1046300002A8039502240294FEF78EF808B1FCF755
:10464000A7F944F2E040C5F60200816841F4002178
:104650008160816801F4002101910199016841F0B4
:1046600001010160006831A900F00100019001988A
:104670000320CDE931040020CDE933000820359036
:104680000020C5F60200FDF783FA36B0B0BD000089
:104690002DE9F04381B00446D0F88800202807D1E6
:1046A0000120002918BF002A06D101B0BDE8F0831F
:1046B000022001B0BDE8F0831D460E460020C4F87C
:1046C00090002120C4F888001746FDF73DFBA4F8B0
:1046D00054708146A4F85670A168B1F5805F02D18C
:1046E0002069002866D037460020B4F8561000290B
:1046F000216867D06A1C28D0002D53D0804600BFA7
:10470000C86900060AD4FDF71FFBA0EB0900A84208
:1047100000F2848021680868F2E700BF17B117F83B
:10472000010B04E038F8020B00276FF35F2088626A
:10473000B4F856000138A4F85600B4F85600002822
:10474000DED13FE0CA69120609D4CA69120606D44E
:10475000CA6912065CBFCA695FEA0262F2D51FB17C
:1047600017F8012B05E000BF30F8022B00276FF38C
:104770005F228A62B4F85620013AA4F85620B4F8B1
:104780005620002AE1D11DE030F8022B00276FF3FC
:104790005F228A62B4F85620013AA4F85620B4F891
:1047A00056207AB1CA69120636D5002FECD017F818
:1047B000012BEEE700273046B4F856100029216897
:1047C0007FF498AFC86940061ED42DB3681C14D17D
:1047D000C86940062AD4C869400627D4C86940067B
:1047E00024D4C86940064FF00000F1D50DE000BFA9
:1047F00020680168C069400618D4FDF7A5FAA0EB4F
:104800000900A842F4D909E000202021C4F888104A
:1048100001B0BDE8F08300BFFDF796FA0320202128
:10482000C4F8881001B0BDE8F08300BF002020214B
:10483000C4F8881001B0BDE8F0830000000000005B
:10484000FEE700000000000010B58CB0684624218F
:1048500000240B94CDE90944FBF736FE40F26800D2
:1048600042F20001C2F20040C4F2020104220160DF
:104870004FF40021C0E9011401210483C0E90412AE
:104880000222C26180F82040C0E90A440463C0E902
:104890000F4480F844408164FCF76AFB08B1FCF7E0
:1048A00077F840F2680009A9C2F200400994FCF7C9
:1048B00077F808B1FCF76CF808206946C0F690401C
:1048C0000090062001900520029040F2FF700390B6
:1048D00004200490002005908DF8210040F268002B
:1048E000C2F20040FCF7B4F808B1FCF751F8102010
:1048F0006946C1F2C00000900C20019040F26800AF
:10490000C2F20040FCF7A4F808B1FCF741F80CB083
:1049100010BD000000000000B0B58AB001A824213D
:10492000FBF7D2FD40F2D80042F20011C2F2004083
:10493000C4F202010024042501604FF4002141600B
:10494000012184600322C0E904150483C26180F858
:104950002040C0E90A440463C0E90F4480F84440A1
:104960008164FCF705FB08B1FCF712F840F2004047
:1049700001A9C2F6002001900620029005200390B4
:1049800040F2FF700694CDE9040540F2D8008DF89E
:104990002540C2F20040FCF75BF808B1FBF7F8FFD6
:1049A00044F2000001A9C3F6C02001900C2002903F
:1049B00040F2D800C2F20040FCF74AF808B1FBF719
:1049C000E7FF48F2000001A9C3F6F0600190122051
:1049D000029040F2D800C2F20040FCF739F808B16A
:1049E000FBF7D6FF0AB0B0BD80B540F248104AF2DE
:1049F0000041C2F20040C4F2000110220223016013
:104A00000021C0E90211C0F80F1042610122826149
:104A1000C0E90733C0E90922C0E90B22C0E90D1142
:104A2000C0E90F110422C0E91121C0E91321C0E936
:104A30001521C0E91711C0E91912FCF759FE002829
:104A400008BF80BDBDE88040FBF7A2BF00000000AA
:104A50002DE9F04F87B044F2E0400024C5F6020093
:104A60000694CDE90444CDE90244016840F600080B
:104A700041F0040101600168C5F6020801F004017B
:104A800001910199016841F08001016001680022F3
:104A900001F0800101910199016841F0010101607B
:104AA000016801F0010101910199016841F01001D3
:104AB0000160016801F0100101910199016841F064
:104AC0000201016000684FF4025100F00200019001
:104AD00001984046FDF730F908F500654FF40041B4
:104AE00000222846FDF728F9A8F580664FF40061FA
:104AF000002230464FF4006BFDF71EF902AF4FF471
:104B000000500290404639464FF00109CDF80C9014
:104B10004FF0020ACDE904A4FDF73AF802A94FF4D8
:104B20000040059481E8010628463946FDF730F833
:104B300030463946CDE902B9CDE90444FDF728F8FD
:104B400080203946CDE902094046CDE90444FDF70D
:104B50001FF807B0BDE8F08FB0B59EB001A83421B2
:104B600000241494CDE91244CDE91044CDE90E445B
:104B7000FBF7AAFC40F27C000025C2F20000C4F260
:104B8000010540F6FF61C0E900548460C0E90314E8
:104B9000446180218161FFF73FFB08B1FBF7F8FE1C
:104BA00040F27C0015A9C2F200001794CDE915442B
:104BB000FFF766F808B1FBF7EBFE60200E9040F2BD
:104BC0007C000EA9C2F2000000220024CDE90F44AF
:104BD000CDE91144CDE91344FFF7C2F808B1FBF762
:104BE000D7FE05944FF40050CDE90344CDE90144CC
:104BF000CDE9060409944FF00070CDE90A040D9444
:104C000040F27C04C2F2000401A92046FEF7D4FF62
:104C100008B1FBF7BDFE40F200422068C4F200027A
:104C2000002190421D91CDE91B11CDE9191115D03C
:104C3000A84232D144F2E0404FF48072C5F602003F
:104C4000016841F0010101600068012100F00100EC
:104C5000189018980020C5F6020014E044F2E040D5
:104C60004FF40072C5F60200016841F004010160D2
:104C7000006800F00400189000201899C5F60200A2
:104C8000022100F500601D9119A9199202221A92C1
:104C90000022CDE91B22FCF77BFF1EB0B0BD000057
:104CA00070B590B040F2E81040F20045C2F200400A
:104CB00000240894C4F20005CDE90544CDE903447D
:104CC000C0E90054846040F6FF61C0E9031480210C
:104CD0008161FFF7A1FA08B1FBF75AFE40F2E81034
:104CE00007A9C2F2004007940994FEF7C9FF08B172
:104CF000FBF74EFE40F2E8146020C2F20044009040
:104D000069460C2220460026CDE901660496FFF78D
:104D100027F808B1FBF73CFE20680F96A8420C96D6
:104D2000CDE90D660B9619D00021C4F2010188422D
:104D300033D144F2E0404FF48072C5F602000168BE
:104D400041F0010101600068012100F001000A90BA
:104D50000A980020C5F6020015E000BF44F2E040CA
:104D60004FF40072C5F60200016841F004010160D1
:104D7000006800F004000A9000200A99C5F60200BD
:104D8000022100F500600F910BA90B9202220C92F8
:104D90000022CDE90D22FCF7FBFE10B070BD000033
:104DA00080B540F2342044F60041C2F20040C4F223
:104DB00000010C2201604FF4E13141600021C0E9A3
:104DC00002110161C0E90521C0E90711C0E909111B
:104DD000FFF7E2FB08B1FBF7DBFD40F234200021D6
:104DE000C2F20040FFF790FB08B1FBF7D1FD40F2A3
:104DF00034200021C2F20040FFF73EFB08B1FBF770
:104E0000C7FD40F23420C2F20040FFF719FB002832
:104E100008BF80BDBDE88040FBF7BABD00000000C0
:104E2000FEE7000000000000FEE7000000000000B8
:104E30007047000000000000F0B581B044F22C473C
:104E4000C5F6020757F8042C02F00302032A03D127
:104E5000012001B0F0BD00BF054657F82C0C0C46F0
:104E600020F0806047F82C0CFCF76EFF064600BF70
:104E700057F82C0C000105D5FCF766FF801B0228B3
:104E8000F6D964E057F8040CEE6895E80E0020F4BB
:104E90007C30012C40EA0130A2F101016FF35F2167
:104EA0004FF47E4202EB432247F8040C92B24FF0DB
:104EB000FE4302EB01004FF4FE012A6901EB0641BB
:104EC00001F4FE0103EB0262084402F0FE410844D3
:104ED000F8603868696920F0C00040EA0100386075
:104EE0003868A96920F0200040EA0100386038687D
:104EF0004FF6F87120F0100038603869EA6920EA4E
:104F000001004FF4001140EAC2003861386808BF60
:104F10004FF4801140F01000002C386008BF4FF4AF
:104F2000002138680843386057F82C0C40F0806046
:104F300047F82C0CFCF708FF044600BF57F82C0C70
:104F4000000107D4FCF700FF001B0328F6D3032061
:104F500001B0F0BD002001B0F0BD00000000000075
:104F6000F0B581B044F22C47C5F6020757F8042C7F
:104F700002F00302032A03D1012001B0F0BD00BFFB
:104F8000054657F82C0C0C4620F0805047F82C0CA6
:104F9000FCF7DAFE064600BF57F82C0C800005D55A
:104FA000FCF7D2FE801B0228F6D964E057F8040C07
:104FB000EE6895E80E0020F07C70012C40EA01506C
:104FC000A2F101016FF35F214FF47E4202EB432215
:104FD00047F8040C92B24FF0FE4302EB01004FF48D
:104FE000FE012A6901EB064101F4FE0103EB0262B6
:104FF000084402F0FE41084478613868696920F489
:10500000406040EA010038603868A96920F4007007
:1050100040EA0100386038684FF6F87120F480707B
:105020003860B869EA6920EA01004FF0807140EA0F
:10503000C200B861386808BF4FF4000140F48070C6
:10504000002C386008BF4FF480013868084338608E
:1050500057F82C0C40F0805047F82C0CFCF774FEED
:10506000044600BF57F82C0C800007D4FCF76CFEF8
:10507000001B0328F6D3032001B0F0BD002001B0CF
:10508000F0BD0000000000007047000000000000BC
:10509000FCF762BE00000000B0B59CB044F61804F6
:1050A00009A84C21C5F60204FBF70EFA02200025E0
:1050B000CDE90755CDE90555CDE90355CDE90155B4
:1050C000FCF756FF0095206840F4404020602068BF
:1050D00000F44040009000982068800409D42068C3
:1050E00080045CBF20685FEA804002D420688004AE
:1050F000F2D50220099012900121CDE9170009A8EC
:105100000C9140240D9400251395042214920C2236
:105110001B95CDE91521CDE91925FEF79DFA28B19A
:10512000EFF3108072B600BFFEE700BF3F20019092
:1051300003200221CDE902054FF480600694CDE9F9
:10514000070401A8CDE90454FEF746F820B1EFF3B7
:10515000108072B6FEE700BF1CB0B0BD00000000BA
:105160004EF6885042F2000CCEF20000C5F2002C40
:10517000026842F470020260DCF8000000F00F00E8
:10518000062806D8DCF80000072262F30300CCF8FA
:10519000000044F200404EF67F51C5F60200CEF604
:1051A000F621026842F001020260002202610368F7
:1051B00019400160DCF80010090706D5DCF8001082
:1051C000072363F30301CCF8001040F20021826151
:1051D000C261C0F20221026281620021C0F2FF11AD
:1051E000C16240F28021C0F2011101634263816318
:1051F000C26301644264016821F480210160026697
:1052000044F20000C5F2002043F2D2010160704771
:1052100040F6FF32C4F200029042026810DCB0F1A6
:10522000804F1ED040F20043C4F20003984218D0D1
:1052300040F60003C4F20003984212D015E000BF0C
:1052400040F60043C4F2000398420AD040F2004303
:10525000C4F20103984204D00023C4F2010398422F
:1052600003D122F070024B681A434EF2FF3343F62B
:10527000FF7CC4F20003C4F2010C984214DD6045C7
:105280002CDC4EF20043C4F20003984243D00023CA
:10529000C4F2010398423ED040F20043C4F201033D
:1052A000984238D03BE000BF40F2FF73C4F20003E5
:1052B000984227DD40F60003C4F2000398422AD04A
:1052C00040F60043C4F20003984224D04EF200039B
:1052D000C4F2000398421ED021E000BF44F2000354
:1052E000C4F20103984216D044F60003C4F201034D
:1052F000984210D044F20043C4F2010398420AD00D
:105300000DE000BFB0F1804F05D040F20043C4F281
:105310000003984203D122F44072CB681A4310B5BF
:1053200022F08002D1F800E04C698B6822430260D1
:10533000C3626045C0F828E0BDE8104012DD44F2C9
:105340000002C4F20102904217D044F60002C4F2F7
:105350000102904211D044F20042C4F20102904294
:105360000BD00CE00022C4F20102904205D040F2C2
:105370000042C4F20102904201D109690163012196
:1053800041610169C90708BF7047016921F0010146
:105390000161704700000000816A0A070CD4CA0747
:1053A00015D18A071ED44A0727D4CA0630D48A06E4
:1053B00039D44A0642D454E00268D0F838C0536861
:1053C00023F4004343EA0C035360CA07E9D00268A0
:1053D000D0F82CC0536823F4003343EA0C03536025
:1053E0008A07E0D50268D0F830C0536823F48033D0
:1053F00043EA0C0353604A07D7D50268D0F834C09B
:10540000536823F4802343EA0C035360CA06CED5C5
:105410000268D0F83CC0936823F4805343EA0C033D
:1054200093608A06C5D50268D0F840C0936823F41B
:10543000005343EA0C0393604A0612D50268D0F881
:1054400044C0BCF5801F536823F4801343EA0C0367
:10545000536006D1536823F4C00C836C43EA0C03F9
:105460005360090658BF70470168C06C4A6822F44F
:105470000022104348607047B0B582B00446002057
:10548000C4F89000FCF760FC216805460A68120722
:1054900037D54FF4001100226FF07E400090204677
:1054A0002B4600F0F1FA58B3206850E8000F21684D
:1054B00020F0800041E80002002A1FBF206850E869
:1054C000000F216820F080001CBF41E80002002A84
:1054D00012D0206850E8000F216820F0800041E8D9
:1054E00000024AB1206850E8000F216820F08000D7
:1054F00041E80002002AD7D10320202188226CE055
:105500002168086840075FD54FF4800100226FF0E2
:105510007E40009020462B4600F0B6FA002853D07B
:10552000206850E8000F216820F4907041E80002E4
:10553000F2B1206850E8000F216820F4907041E833
:105540000002002A1FBF206850E8000F216820F4E5
:1055500090701CBF41E80002002A09D0206850E882
:10556000000F216820F4907041E80002002AD7D192
:10557000206850E8020F216820F0010041E8020293
:10558000002A1FBF206850E8020F216820F00100A8
:105590001CBF41E80202002A12D0206850E8020F26
:1055A000216820F0010041E802024AB1206850E879
:1055B000020F216820F0010041E80202002AD7D141
:1055C000032020218C2208E02020C4F88800C4F8A1
:1055D0008C00002170220020E166A150002184F897
:1055E000841002B0B0BD0000F0B583B0044600687E
:1055F00046F6F31640F6004E22696569D4E90213B7
:105600000A43E7690168CCF6FF762A43314011432B
:10561000C5F6000E394301604168704521F44051E0
:1056200044F2544C41EA03014160A2694FF2FF4346
:105630001CBF216A0A438168C1F2FF131940C5F6F5
:10564000020C1143816047F6FF32C16AC4F20002C6
:1056500021F00F01656A90424FF0800341EA050195
:10566000C16219DD41F2FF71C4F2010188422DDCF3
:1056700047F60041C4F20001884257D041F20001D0
:10568000C4F20101884239D041F20041C4F2010163
:10569000884233D056E000BF44F6FF31C4F2000127
:1056A000884237DD44F60041C4F2000188423DD013
:1056B00045F20001C4F20001884237D047F60001EC
:1056C000C4F20001884231D03CE000BF41F6000145
:1056D000C4F20101884211D041F60041C4F2010137
:1056E00088420BD070452DD1DCF8041001F0070280
:1056F000062A27D20FF2883122E000BFDCF8001022
:10570000C1F3C202062A1DD246F2FE21C0F60001F4
:1057100016E000BF44F20041C4F20001884205D007
:1057200044F60001C4F2000188420BD1DCF80010FD
:1057300001F00702062A05D246F2F821C0F6000160
:105740008B181B78704540F60010C0F23D0000F049
:105750005380B7F5004F40F07B80402B4FF00101A4
:1057600000F28581DFE813F042002E0183018301FE
:105770003601830183018301420183018301830197
:1057800083018301830183010A0183018301830172
:1057900083018301830183018301830183018301E9
:1057A0008301830183018301480183018301830114
:1057B00083018301830183018301830183018301C9
:1057C00083018301830183018301830183018301B9
:1057D00083018301830183018301830183018301A9
:1057E0008301830183018301260100BFFDF748FE89
:1057F000002840F0008136E19A1E01211E2A00F2A5
:105800007580DFE812F01F00340187003401340195
:1058100034018D0034013401340134013401340188
:10582000340179003401340134013401340134018C
:1058300034013401340134013401340134013401C0
:1058400034019500FCF7BCFB002840F070800AE1B1
:10585000402B4FF0010100F20A81DFE813F0410014
:10586000B70008010801C100080108010801E900AA
:1058700008010801080108010801080108019D004C
:1058800008010801080108010801080108010801D0
:105890000801080108010801080108010801EF00DA
:1058A00008010801080108010801080108010801B0
:1058B00008010801080108010801080108010801A0
:1058C0000801080108010801080108010801080190
:1058D0000801080108010801080108010801AF00DA
:1058E000FDF7CEFD002840F0A880BCE0402B40F042
:1058F000BE804FF400401BE05CF8540C800649F277
:105900000000C0F2D03013D55CF8541CC1F3C101C3
:10591000C8400DE06846FCF703FC019838B9A2E0E6
:105920006846FCF795FC0198002800F09C80656AA9
:1059300046F214316268C0F6000131F81510B0FB70
:10594000F1F002EB420188424FF00101C0F08F807C
:105950001303984200F28B80010E0023000210EB2B
:10596000520041F10001FAF737FD4FF60052A0F561
:105970004071C0F20F02914273D377E05CF8540C8F
:10598000800649F20000C0F2D03035D55CF8541CD6
:10599000C1F3C101C8402FE05CF8540C800649F205
:1059A0000000C0F2D03049D55CF8541CC1F3C101ED
:1059B000C84043E04FF400401EE000BF4FF40040F9
:1059C0003CE000BFFDF78CFDA8B94CE0FDF788FD79
:1059D00098BB48E06846FCF7A3FB019858B942E041
:1059E0006846FCF79DFB019838BB3CE06846FCF735
:1059F0002FFC0198B8B3656A46F21431C0F6000175
:105A000031F81510B0FBF1F061684A0802EB400074
:105A10004FF6EF72B0FBF1F0A0F11001914225D8E2
:105A20004FF6F0710140C0F34200084419E000BF96
:105A30006846FCF70DFC0198A8B1656A46F214317E
:105A40006268C0F6000131F81510B0FBF1F000EB10
:105A50005200B0FBF2F0A0F110014FF6EF7291424C
:105A600004D82168C860002101E000BF01214FF087
:105A70000110A0660020C4E91D00084603B0F0BD77
:105A800002040810204000002DE9F0418046006823
:105A90000D46C7693940491BB1FA81F14909914264
:105AA00025D1069C34B31646611C29D1C169294011
:105AB000491BB1FA81F14909B14218D1C1692940A4
:105AC000491BB1FA81F14909B14201BFC1692940BD
:105AD000491BB1FA81F104BF4909B14207D1C1693B
